:1000000002041754656D70657261747572650054F1
:0E001000656D70203D20202020202020000261
:10001E00C000788500D8FDD00022C000C00179282C
:10002E007868D8FED9FADAF6D001D00022D294122E
:10003E00001EC29422A2E79283A2E69282A2E592C9
:10004E0081A2E4928012003B12001EA2E39283A2D0
:10005E00E29282A2E19281A2E0928012003B22D231
:10006E0093020043C293020043C294C0027A281244
:10007E000028D0027433120072743312007274327C
:10008E001200727428120072740C12007274011233
:10009E000072C0027A02120028D00222E493600697
:1000AE0012006DA380F62244404480020072C0E02C
:1000BE00E8C4540F443012006DE8540F443012005F
:1000CE006DD0E022C0E0E8C4540F443012035BE868
:0A00DE00540F443012035BD0E022FF
:1000E800C0E0C0D0C000C001C002E4F538F539F561
:1000F8003AF53BF53C7A20E533A2E779047830E617
:1001080033F608D9FA79057838E636D4F608D9F9F5
:10011800DAE5D002D001D000D0D0D0E022C0E0C0D3
:10012800D0C000C001C002E4F538F539F53AF53B16
:10013800F53C7A20E533A2E779047830E633F6080F
:10014800D9FA79057838C0D0E6243320E70224D0DC
:1001580020E30224FDD0D033F608D9EADAD6D0025B
:10016800D001D000D0D0D0E022C0E0C0D0C000C0C4
:1001780001C0027A207905C3783CE613C0D030E785
:100188000224D030E30224FDF618D0D0D9EC79044B
:100198007833E613F618D9FADADBD002D001D000AA
:1001A800D0D0D0E022C0E0C0D0E5302534F530E52D
:1001B800313535F531E5323536F532E5333537F554
:1001C80033D0D0D0E022C0E0C0D0C3E5309534F5BC
:1001D80030E5319535F531E5329536F532E533952B
:1001E80037F533D0D0D0E022C0E0C0D0C3E5309599
:1001F80034E5319535E5329536E53395379200D0BB
:10020800D0D0E022C0E0C0D0C3E5349530E53595C4
:1002180031E5369532E53795339200D0D0D0E022DB
:10022800C0E0C0D0C200C3E53495307014E5359500
:1002380031700EE53695327008E53795337002D285
:1002480000D0D0D0E02212022820000302020C22A3
:100258001202282000030201F022C0E0C0F0C0D042
:10026800C000C001C002C003E5308534F0A4F8A97D
:10027800F0E5318534F0A429F9E435F0FAE5308564
:1002880035F0A429F9E5F03AFAE433FBE532853490
:10029800F0A42AFAE5F03BFBE5318535F0A42AFA0B
:1002A800E5F03BFBE5308536F0A42AFAE5F03BFBA8
:1002B800E5338534F0A42BFBE5328535F0A42BFB20
:1002C800E5318536F0A42BFBE5308537F0A42BFB10
:1002D8008B338A3289318830D003D002D001D000E4
:1002E800D0D0D0F0D0E022C0E0C0D0C000C001C063
:1002F80002C003C0047C20E4F8F9FAFBC3E53033FC
:10030800F530E53133F531E53233F532E53333F5A0
:1003180033E833F8E933F9EA33FAEB33FBC3E8950A
:1003280034E99535EA9536EB95374013E89534F876
:10033800E99535F9EA9536FAEB9537FB433001DC58
:10034800BBD004D003D002D001D000D0D0D0E0225E
:100358000D0A003099FDC299F5992275AC0075AD6A
:100368000075B30075B40075B10075B200438E1006
:1003780043878075985253C4DF53890F438920758A
:100388008DF7D28EC28C438E085389F0438901437E
:10039800B30253B4FD53E8F043E80775F60043F69B
:1003A8008043E10122C28CC28D758CBF758A28D228
:1003B8008C308DFD221203ADDAFB22C0E0740A14E2
:1003C8001200B5D0E0C000A83A1200BCD000C000AE
:1003D800A83A1200D2D000C0E0742E12006DD0E00E
:1003E800C000A8391200BCD000C000A8391200D241
:1003F800D000C000A8381200BCD000C000A8381235
:1004080000D2D000C0E0740A141200B5D0E0227502
:10041800817F120363120077C0E07401141200B7E1
:10042800D0E0C083C082C0E09000031200AAD0E0F0
:10043800D082D083C0E07401141200B5D0E0C0832C
:10044800C082C0E090000F1200AAD0E0D082D08312
:10045800C2EFD2EE30EFFDE5C3C4C0E0540FF9D0CF
:10046800E054F045C2F888308931753200753300A0
:10047800883089317532007533007534EC7535C2B2
:100488007536007537001202627534FF75350F75C1
:1004980036007537001202EF7534A475356A753663
:1004A800007537001201CE75346475350075360055
:1004B8007537001202621200E81203C31204F47ABC
:1004C800FA1203BD7AFA1203BD7AFA1203BD7AFA58
:1004D8001203BD75817F9003581204E9B297020494
:1004E80058E493600612035BA380F622C000A83884
:1004F8001200D2D000C000A8391200D2D000C0002B
:08050800A83A1200D2D0002233
:00000001FF
